{
	"data": {
		"bytecode": {
			"linkReferences": {},
			"object": "608060405234801561000f575f80fd5b50335f806101000a81548173ffffffffffffffffffffffffffffffffffffffff021916908373ffffffffffffffffffffffffffffffffffffffff1602179055506109678061005c5f395ff3fe608060405260043610610058575f3560e01c80632b603c7114610063578063310ec4a7146100a05780637bb98a68146100c85780638da5cb5b146100f2578063d0e30db01461011c578063f3fef3a3146101265761005f565b3661005f57005b5f80fd5b34801561006e575f80fd5b5061008960048036038101906100849190610632565b61014e565b604051610097929190610675565b60405180910390f35b3480156100ab575f80fd5b506100c660048036038101906100c191906106c6565b61016e565b005b3480156100d3575f80fd5b506100dc610313565b6040516100e99190610704565b60405180910390f35b3480156100fd575f80fd5b50610106610319565b604051610113919061072c565b60405180910390f35b61012461033c565b005b348015610131575f80fd5b5061014c60048036038101906101479190610780565b6103e3565b005b6002602052805f5260405f205f91509050805f0154908060010154905082565b5f8054906101000a900473ffffffffffffffffffffffffffffffffffffffff1673ffffffffffffffffffffffffffffffffffffffff163373ffffffffffffffffffffffffffffffffffffffff16146101fb576040517f08c379a00000000000000000000000000000000000000000000000000000000081526004016101f290610818565b60405180910390fd5b80600154101561024657600154816040517fcf47918100000000000000000000000000000000000000000000000000000000815260040161023d929190610675565b60405180910390fd5b8060015f8282546102579190610863565b9250508190555060405180604001604052808260025f8673ffffffffffffffffffffffffffffffffffffffff1673ffffffffffffffffffffffffffffffffffffffff1681526020019081526020015f205f01546102b49190610896565b81526020014281525060025f8473ffffffffffffffffffffffffffffffffffffffff1673ffffffffffffffffffffffffffffffffffffffff1681526020019081526020015f205f820151815f0155602082015181600101559050505050565b60015481565b5f8054906101000a900473ffffffffffffffffffffffffffffffffffffffff1681565b5f8054906101000a900473ffffffffffffffffffffffffffffffffffffffff1673ffffffffffffffffffffffffffffffffffffffff163373ffffffffffffffffffffffffffffffffffffffff16146103c9576040517f08c379a00000000000000000000000000000000000000000000000000000000081526004016103c090610818565b60405180910390fd5b3460015f8282546103da9190610896565b92505081905550565b5f8054906101000a900473ffffffffffffffffffffffffffffffffffffffff1673ffffffffffffffffffffffffffffffffffffffff163373ffffffffffffffffffffffffffffffffffffffff1614610470576040517f08c379a000000000000000000000000000000000000000000000000000000000815260040161046790610818565b60405180910390fd5b8060025f8473ffffffffffffffffffffffffffffffffffffffff1673ffffffffffffffffffffffffffffffffffffffff1681526020019081526020015f205f015410156104f2576040517f08c379a00000000000000000000000000000000000000000000000000000000081526004016104e990610913565b60405180910390fd5b8060025f8473ffffffffffffffffffffffffffffffffffffffff1673ffffffffffffffffffffffffffffffffffffffff1681526020019081526020015f205f015f8282546105409190610863565b925050819055504260025f8473ffffffffffffffffffffffffffffffffffffffff1673ffffffffffffffffffffffffffffffffffffffff1681526020019081526020015f20600101819055508173ffffffffffffffffffffffffffffffffffffffff166108fc8290811502906040515f60405180830381858888f193505050501580156105cf573d5f803e3d5ffd5b505050565b5f80fd5b5f73ffffffffffffffffffffffffffffffffffffffff82169050919050565b5f610601826105d8565b9050919050565b610611816105f7565b811461061b575f80fd5b50565b5f8135905061062c81610608565b92915050565b5f60208284031215610647576106466105d4565b5b5f6106548482850161061e565b91505092915050565b5f819050919050565b61066f8161065d565b82525050565b5f6040820190506106885f830185610666565b6106956020830184610666565b9392505050565b6106a58161065d565b81146106af575f80fd5b50565b5f813590506106c08161069c565b92915050565b5f80604083850312156106dc576106db6105d4565b5b5f6106e98582860161061e565b92505060206106fa858286016106b2565b9150509250929050565b5f6020820190506107175f830184610666565b92915050565b610726816105f7565b82525050565b5f60208201905061073f5f83018461071d565b92915050565b5f61074f826105d8565b9050919050565b61075f81610745565b8114610769575f80fd5b50565b5f8135905061077a81610756565b92915050565b5f8060408385031215610796576107956105d4565b5b5f6107a38582860161076c565b92505060206107b4858286016106b2565b9150509250929050565b5f82825260208201905092915050565b7f43616c6c6572206973206e6f74206f776e65722c2061626f7274696e672e2e2e5f82015250565b5f6108026020836107be565b915061080d826107ce565b602082019050919050565b5f6020820190508181035f83015261082f816107f6565b9050919050565b7f4e487b71000000000000000000000000000000000000000000000000000000005f52601160045260245ffd5b5f61086d8261065d565b91506108788361065d565b92508282039050818111156108905761088f610836565b5b92915050565b5f6108a08261065d565b91506108ab8361065d565b92508282019050808211156108c3576108c2610836565b5b92915050565b7f416c6c6f77616e6365206973206e6f7420656e6f7567680000000000000000005f82015250565b5f6108fd6017836107be565b9150610908826108c9565b602082019050919050565b5f6020820190508181035f83015261092a816108f1565b905091905056fea2646970667358221220f3c4b9a606265830a85c3e66f876648e4c592321b200fb3afd58f5b69be96dae64736f6c63430008150033",
			"opcodes": "PUSH1 0x80 PUSH1 0x40 MSTORE CALLVALUE DUP1 ISZERO PUSH2 0xF JUMPI PUSH0 DUP1 REVERT JUMPDEST POP CALLER PUSH0 DUP1 PUSH2 0x100 EXP DUP2 SLOAD DUP2 PUSH20 0xFFFFFFFFFFFFFFFFFFFFFFFFFFFFFFFFFFFFFFFF MUL NOT AND SWAP1 DUP4 PUSH20 0xFFFFFFFFFFFFFFFFFFFFFFFFFFFFFFFFFFFFFFFF AND MUL OR SWAP1 SSTORE POP PUSH2 0x967 DUP1 PUSH2 0x5C PUSH0 CODECOPY PUSH0 RETURN INVALID PUSH1 0x80 PUSH1 0x40 MSTORE PUSH1 0x4 CALLDATASIZE LT PUSH2 0x58 JUMPI PUSH0 CALLDATALOAD PUSH1 0xE0 SHR DUP1 PUSH4 0x2B603C71 EQ PUSH2 0x63 JUMPI DUP1 PUSH4 0x310EC4A7 EQ PUSH2 0xA0 JUMPI DUP1 PUSH4 0x7BB98A68 EQ PUSH2 0xC8 JUMPI DUP1 PUSH4 0x8DA5CB5B EQ PUSH2 0xF2 JUMPI DUP1 PUSH4 0xD0E30DB0 EQ PUSH2 0x11C JUMPI DUP1 PUSH4 0xF3FEF3A3 EQ PUSH2 0x126 JUMPI PUSH2 0x5F JUMP JUMPDEST CALLDATASIZE PUSH2 0x5F JUMPI STOP JUMPDEST PUSH0 DUP1 REVERT JUMPDEST CALLVALUE DUP1 ISZERO PUSH2 0x6E JUMPI PUSH0 DUP1 REVERT JUMPDEST POP PUSH2 0x89 PUSH1 0x4 DUP1 CALLDATASIZE SUB DUP2 ADD SWAP1 PUSH2 0x84 SWAP2 SWAP1 PUSH2 0x632 JUMP JUMPDEST PUSH2 0x14E JUMP JUMPDEST PUSH1 0x40 MLOAD PUSH2 0x97 SWAP3 SWAP2 SWAP1 PUSH2 0x675 JUMP JUMPDEST PUSH1 0x40 MLOAD DUP1 SWAP2 SUB SWAP1 RETURN JUMPDEST CALLVALUE DUP1 ISZERO PUSH2 0xAB JUMPI PUSH0 DUP1 REVERT JUMPDEST POP PUSH2 0xC6 PUSH1 0x4 DUP1 CALLDATASIZE SUB DUP2 ADD SWAP1 PUSH2 0xC1 SWAP2 SWAP1 PUSH2 0x6C6 JUMP JUMPDEST PUSH2 0x16E JUMP JUMPDEST STOP JUMPDEST CALLVALUE DUP1 ISZERO PUSH2 0xD3 JUMPI PUSH0 DUP1 REVERT JUMPDEST POP PUSH2 0xDC PUSH2 0x313 JUMP JUMPDEST PUSH1 0x40 MLOAD PUSH2 0xE9 SWAP2 SWAP1 PUSH2 0x704 JUMP JUMPDEST PUSH1 0x40 MLOAD DUP1 SWAP2 SUB SWAP1 RETURN JUMPDEST CALLVALUE DUP1 ISZERO PUSH2 0xFD JUMPI PUSH0 DUP1 REVERT JUMPDEST POP PUSH2 0x106 PUSH2 0x319 JUMP JUMPDEST PUSH1 0x40 MLOAD PUSH2 0x113 SWAP2 SWAP1 PUSH2 0x72C JUMP JUMPDEST PUSH1 0x40 MLOAD DUP1 SWAP2 SUB SWAP1 RETURN JUMPDEST PUSH2 0x124 PUSH2 0x33C JUMP JUMPDEST STOP JUMPDEST CALLVALUE DUP1 ISZERO PUSH2 0x131 JUMPI PUSH0 DUP1 REVERT JUMPDEST POP PUSH2 0x14C PUSH1 0x4 DUP1 CALLDATASIZE SUB DUP2 ADD SWAP1 PUSH2 0x147 SWAP2 SWAP1 PUSH2 0x780 JUMP JUMPDEST PUSH2 0x3E3 JUMP JUMPDEST STOP JUMPDEST PUSH1 0x2 PUSH1 0x20 MSTORE DUP1 PUSH0 MSTORE PUSH1 0x40 PUSH0 KECCAK256 PUSH0 SWAP2 POP SWAP1 POP DUP1 PUSH0 ADD SLOAD SWAP1 DUP1 PUSH1 0x1 ADD SLOAD SWAP1 POP DUP3 JUMP JUMPDEST PUSH0 DUP1 SLOAD SWAP1 PUSH2 0x100 EXP SWAP1 DIV PUSH20 0xFFFFFFFFFFFFFFFFFFFFFFFFFFFFFFFFFFFFFFFF AND PUSH20 0xFFFFFFFFFFFFFFFFFFFFFFFFFFFFFFFFFFFFFFFF AND CALLER PUSH20 0xFFFFFFFFFFFFFFFFFFFFFFFFFFFFFFFFFFFFFFFF AND EQ PUSH2 0x1FB JUMPI PUSH1 0x40 MLOAD PUSH32 0x8C379A000000000000000000000000000000000000000000000000000000000 DUP2 MSTORE PUSH1 0x4 ADD PUSH2 0x1F2 SWAP1 PUSH2 0x818 JUMP JUMPDEST PUSH1 0x40 MLOAD DUP1 SWAP2 SUB SWAP1 REVERT JUMPDEST DUP1 PUSH1 0x1 SLOAD LT ISZERO PUSH2 0x246 JUMPI PUSH1 0x1 SLOAD DUP2 PUSH1 0x40 MLOAD PUSH32 0xCF47918100000000000000000000000000000000000000000000000000000000 DUP2 MSTORE PUSH1 0x4 ADD PUSH2 0x23D SWAP3 SWAP2 SWAP1 PUSH2 0x675 JUMP JUMPDEST PUSH1 0x40 MLOAD DUP1 SWAP2 SUB SWAP1 REVERT JUMPDEST DUP1 PUSH1 0x1 PUSH0 DUP3 DUP3 SLOAD PUSH2 0x257 SWAP2 SWAP1 PUSH2 0x863 JUMP JUMPDEST SWAP3 POP POP DUP2 SWAP1 SSTORE POP PUSH1 0x40 MLOAD DUP1 PUSH1 0x40 ADD PUSH1 0x40 MSTORE DUP1 DUP3 PUSH1 0x2 PUSH0 DUP7 PUSH20 0xFFFFFFFFFFFFFFFFFFFFFFFFFFFFFFFFFFFFFFFF AND PUSH20 0xFFFFFFFFFFFFFFFFFFFFFFFFFFFFFFFFFFFFFFFF AND DUP2 MSTORE PUSH1 0x20 ADD SWAP1 DUP2 MSTORE PUSH1 0x20 ADD PUSH0 KECCAK256 PUSH0 ADD SLOAD PUSH2 0x2B4 SWAP2 SWAP1 PUSH2 0x896 JUMP JUMPDEST DUP2 MSTORE PUSH1 0x20 ADD TIMESTAMP DUP2 MSTORE POP PUSH1 0x2 PUSH0 DUP5 PUSH20 0xFFFFFFFFFFFFFFFFFFFFFFFFFFFFFFFFFFFFFFFF AND PUSH20 0xFFFFFFFFFFFFFFFFFFFFFFFFFFFFFFFFFFFFFFFF AND DUP2 MSTORE PUSH1 0x20 ADD SWAP1 DUP2 MSTORE PUSH1 0x20 ADD PUSH0 KECCAK256 PUSH0 DUP3 ADD MLOAD DUP2 PUSH0 ADD SSTORE PUSH1 0x20 DUP3 ADD MLOAD DUP2 PUSH1 0x1 ADD SSTORE SWAP1 POP POP POP POP JUMP JUMPDEST PUSH1 0x1 SLOAD DUP2 JUMP JUMPDEST PUSH0 DUP1 SLOAD SWAP1 PUSH2 0x100 EXP SWAP1 DIV PUSH20 0xFFFFFFFFFFFFFFFFFFFFFFFFFFFFFFFFFFFFFFFF AND DUP2 JUMP JUMPDEST PUSH0 DUP1 SLOAD SWAP1 PUSH2 0x100 EXP SWAP1 DIV PUSH20 0xFFFFFFFFFFFFFFFFFFFFFFFFFFFFFFFFFFFFFFFF AND PUSH20 0xFFFFFFFFFFFFFFFFFFFFFFFFFFFFFFFFFFFFFFFF AND CALLER PUSH20 0xFFFFFFFFFFFFFFFFFFFFFFFFFFFFFFFFFFFFFFFF AND EQ PUSH2 0x3C9 JUMPI PUSH1 0x40 MLOAD PUSH32 0x8C379A000000000000000000000000000000000000000000000000000000000 DUP2 MSTORE PUSH1 0x4 ADD PUSH2 0x3C0 SWAP1 PUSH2 0x818 JUMP JUMPDEST PUSH1 0x40 MLOAD DUP1 SWAP2 SUB SWAP1 REVERT JUMPDEST CALLVALUE PUSH1 0x1 PUSH0 DUP3 DUP3 SLOAD PUSH2 0x3DA SWAP2 SWAP1 PUSH2 0x896 JUMP JUMPDEST SWAP3 POP POP DUP2 SWAP1 SSTORE POP JUMP JUMPDEST PUSH0 DUP1 SLOAD SWAP1 PUSH2 0x100 EXP SWAP1 DIV PUSH20 0xFFFFFFFFFFFFFFFFFFFFFFFFFFFFFFFFFFFFFFFF AND PUSH20 0xFFFFFFFFFFFFFFFFFFFFFFFFFFFFFFFFFFFFFFFF AND CALLER PUSH20 0xFFFFFFFFFFFFFFFFFFFFFFFFFFFFFFFFFFFFFFFF AND EQ PUSH2 0x470 JUMPI PUSH1 0x40 MLOAD PUSH32 0x8C379A000000000000000000000000000000000000000000000000000000000 DUP2 MSTORE PUSH1 0x4 ADD PUSH2 0x467 SWAP1 PUSH2 0x818 JUMP JUMPDEST PUSH1 0x40 MLOAD DUP1 SWAP2 SUB SWAP1 REVERT JUMPDEST DUP1 PUSH1 0x2 PUSH0 DUP5 PUSH20 0xFFFFFFFFFFFFFFFFFFFFFFFFFFFFFFFFFFFFFFFF AND PUSH20 0xFFFFFFFFFFFFFFFFFFFFFFFFFFFFFFFFFFFFFFFF AND DUP2 MSTORE PUSH1 0x20 ADD SWAP1 DUP2 MSTORE PUSH1 0x20 ADD PUSH0 KECCAK256 PUSH0 ADD SLOAD LT ISZERO PUSH2 0x4F2 JUMPI PUSH1 0x40 MLOAD PUSH32 0x8C379A000000000000000000000000000000000000000000000000000000000 DUP2 MSTORE PUSH1 0x4 ADD PUSH2 0x4E9 SWAP1 PUSH2 0x913 JUMP JUMPDEST PUSH1 0x40 MLOAD DUP1 SWAP2 SUB SWAP1 REVERT JUMPDEST DUP1 PUSH1 0x2 PUSH0 DUP5 PUSH20 0xFFFFFFFFFFFFFFFFFFFFFFFFFFFFFFFFFFFFFFFF AND PUSH20 0xFFFFFFFFFFFFFFFFFFFFFFFFFFFFFFFFFFFFFFFF AND DUP2 MSTORE PUSH1 0x20 ADD SWAP1 DUP2 MSTORE PUSH1 0x20 ADD PUSH0 KECCAK256 PUSH0 ADD PUSH0 DUP3 DUP3 SLOAD PUSH2 0x540 SWAP2 SWAP1 PUSH2 0x863 JUMP JUMPDEST SWAP3 POP POP DUP2 SWAP1 SSTORE POP TIMESTAMP PUSH1 0x2 PUSH0 DUP5 PUSH20 0xFFFFFFFFFFFFFFFFFFFFFFFFFFFFFFFFFFFFFFFF AND PUSH20 0xFFFFFFFFFFFFFFFFFFFFFFFFFFFFFFFFFFFFFFFF AND DUP2 MSTORE PUSH1 0x20 ADD SWAP1 DUP2 MSTORE PUSH1 0x20 ADD PUSH0 KECCAK256 PUSH1 0x1 ADD DUP2 SWAP1 SSTORE POP DUP2 PUSH20 0xFFFFFFFFFFFFFFFFFFFFFFFFFFFFFFFFFFFFFFFF AND PUSH2 0x8FC DUP3 SWAP1 DUP2 ISZERO MUL SWAP1 PUSH1 0x40 MLOAD PUSH0 PUSH1 0x40 MLOAD DUP1 DUP4 SUB DUP2 DUP6 DUP9 DUP9 CALL SWAP4 POP POP POP POP ISZERO DUP1 ISZERO PUSH2 0x5CF JUMPI RETURNDATASIZE PUSH0 DUP1 RETURNDATACOPY RETURNDATASIZE PUSH0 REVERT JUMPDEST POP POP POP JUMP JUMPDEST PUSH0 DUP1 REVERT JUMPDEST PUSH0 PUSH20 0xFFFFFFFFFFFFFFFFFFFFFFFFFFFFFFFFFFFFFFFF DUP3 AND SWAP1 POP SWAP2 SWAP1 POP JUMP JUMPDEST PUSH0 PUSH2 0x601 DUP3 PUSH2 0x5D8 JUMP JUMPDEST SWAP1 POP SWAP2 SWAP1 POP JUMP JUMPDEST PUSH2 0x611 DUP2 PUSH2 0x5F7 JUMP JUMPDEST DUP2 EQ PUSH2 0x61B JUMPI PUSH0 DUP1 REVERT JUMPDEST POP JUMP JUMPDEST PUSH0 DUP2 CALLDATALOAD SWAP1 POP PUSH2 0x62C DUP2 PUSH2 0x608 JUMP JUMPDEST SWAP3 SWAP2 POP POP JUMP JUMPDEST PUSH0 PUSH1 0x20 DUP3 DUP5 SUB SLT ISZERO PUSH2 0x647 JUMPI PUSH2 0x646 PUSH2 0x5D4 JUMP JUMPDEST JUMPDEST PUSH0 PUSH2 0x654 DUP5 DUP3 DUP6 ADD PUSH2 0x61E JUMP JUMPDEST SWAP2 POP POP SWAP3 SWAP2 POP POP JUMP JUMPDEST PUSH0 DUP2 SWAP1 POP SWAP2 SWAP1 POP JUMP JUMPDEST PUSH2 0x66F DUP2 PUSH2 0x65D JUMP JUMPDEST DUP3 MSTORE POP POP JUMP JUMPDEST PUSH0 PUSH1 0x40 DUP3 ADD SWAP1 POP PUSH2 0x688 PUSH0 DUP4 ADD DUP6 PUSH2 0x666 JUMP JUMPDEST PUSH2 0x695 PUSH1 0x20 DUP4 ADD DUP5 PUSH2 0x666 JUMP JUMPDEST SWAP4 SWAP3 POP POP POP JUMP JUMPDEST PUSH2 0x6A5 DUP2 PUSH2 0x65D JUMP JUMPDEST DUP2 EQ PUSH2 0x6AF JUMPI PUSH0 DUP1 REVERT JUMPDEST POP JUMP JUMPDEST PUSH0 DUP2 CALLDATALOAD SWAP1 POP PUSH2 0x6C0 DUP2 PUSH2 0x69C JUMP JUMPDEST SWAP3 SWAP2 POP POP JUMP JUMPDEST PUSH0 DUP1 PUSH1 0x40 DUP4 DUP6 SUB SLT ISZERO PUSH2 0x6DC JUMPI PUSH2 0x6DB PUSH2 0x5D4 JUMP JUMPDEST JUMPDEST PUSH0 PUSH2 0x6E9 DUP6 DUP3 DUP7 ADD PUSH2 0x61E JUMP JUMPDEST SWAP3 POP POP PUSH1 0x20 PUSH2 0x6FA DUP6 DUP3 DUP7 ADD PUSH2 0x6B2 JUMP JUMPDEST SWAP2 POP POP SWAP3 POP SWAP3 SWAP1 POP JUMP JUMPDEST PUSH0 PUSH1 0x20 DUP3 ADD SWAP1 POP PUSH2 0x717 PUSH0 DUP4 ADD DUP5 PUSH2 0x666 JUMP JUMPDEST SWAP3 SWAP2 POP POP JUMP JUMPDEST PUSH2 0x726 DUP2 PUSH2 0x5F7 JUMP JUMPDEST DUP3 MSTORE POP POP JUMP JUMPDEST PUSH0 PUSH1 0x20 DUP3 ADD SWAP1 POP PUSH2 0x73F PUSH0 DUP4 ADD DUP5 PUSH2 0x71D JUMP JUMPDEST SWAP3 SWAP2 POP POP JUMP JUMPDEST PUSH0 PUSH2 0x74F DUP3 PUSH2 0x5D8 JUMP JUMPDEST SWAP1 POP SWAP2 SWAP1 POP JUMP JUMPDEST PUSH2 0x75F DUP2 PUSH2 0x745 JUMP JUMPDEST DUP2 EQ PUSH2 0x769 JUMPI PUSH0 DUP1 REVERT JUMPDEST POP JUMP JUMPDEST PUSH0 DUP2 CALLDATALOAD SWAP1 POP PUSH2 0x77A DUP2 PUSH2 0x756 JUMP JUMPDEST SWAP3 SWAP2 POP POP JUMP JUMPDEST PUSH0 DUP1 PUSH1 0x40 DUP4 DUP6 SUB SLT ISZERO PUSH2 0x796 JUMPI PUSH2 0x795 PUSH2 0x5D4 JUMP JUMPDEST JUMPDEST PUSH0 PUSH2 0x7A3 DUP6 DUP3 DUP7 ADD PUSH2 0x76C JUMP JUMPDEST SWAP3 POP POP PUSH1 0x20 PUSH2 0x7B4 DUP6 DUP3 DUP7 ADD PUSH2 0x6B2 JUMP JUMPDEST SWAP2 POP POP SWAP3 POP SWAP3 SWAP1 POP JUMP JUMPDEST PUSH0 DUP3 DUP3 MSTORE PUSH1 0x20 DUP3 ADD SWAP1 POP SWAP3 SWAP2 POP POP JUMP JUMPDEST PUSH32 0x43616C6C6572206973206E6F74206F776E65722C2061626F7274696E672E2E2E PUSH0 DUP3 ADD MSTORE POP JUMP JUMPDEST PUSH0 PUSH2 0x802 PUSH1 0x20 DUP4 PUSH2 0x7BE JUMP JUMPDEST SWAP2 POP PUSH2 0x80D DUP3 PUSH2 0x7CE JUMP JUMPDEST PUSH1 0x20 DUP3 ADD SWAP1 POP SWAP2 SWAP1 POP JUMP JUMPDEST PUSH0 PUSH1 0x20 DUP3 ADD SWAP1 POP DUP2 DUP2 SUB PUSH0 DUP4 ADD MSTORE PUSH2 0x82F DUP2 PUSH2 0x7F6 JUMP JUMPDEST SWAP1 POP SWAP2 SWAP1 POP JUMP JUMPDEST PUSH32 0x4E487B7100000000000000000000000000000000000000000000000000000000 PUSH0 MSTORE PUSH1 0x11 PUSH1 0x4 MSTORE PUSH1 0x24 PUSH0 REVERT JUMPDEST PUSH0 PUSH2 0x86D DUP3 PUSH2 0x65D JUMP JUMPDEST SWAP2 POP PUSH2 0x878 DUP4 PUSH2 0x65D JUMP JUMPDEST SWAP3 POP DUP3 DUP3 SUB SWAP1 POP DUP2 DUP2 GT ISZERO PUSH2 0x890 JUMPI PUSH2 0x88F PUSH2 0x836 JUMP JUMPDEST JUMPDEST SWAP3 SWAP2 POP POP JUMP JUMPDEST PUSH0 PUSH2 0x8A0 DUP3 PUSH2 0x65D JUMP JUMPDEST SWAP2 POP PUSH2 0x8AB DUP4 PUSH2 0x65D JUMP JUMPDEST SWAP3 POP DUP3 DUP3 ADD SWAP1 POP DUP1 DUP3 GT ISZERO PUSH2 0x8C3 JUMPI PUSH2 0x8C2 PUSH2 0x836 JUMP JUMPDEST JUMPDEST SWAP3 SWAP2 POP POP JUMP JUMPDEST PUSH32 0x416C6C6F77616E6365206973206E6F7420656E6F756768000000000000000000 PUSH0 DUP3 ADD MSTORE POP JUMP JUMPDEST PUSH0 PUSH2 0x8FD PUSH1 0x17 DUP4 PUSH2 0x7BE JUMP JUMPDEST SWAP2 POP PUSH2 0x908 DUP3 PUSH2 0x8C9 JUMP JUMPDEST PUSH1 0x20 DUP3 ADD SWAP1 POP SWAP2 SWAP1 POP JUMP JUMPDEST PUSH0 PUSH1 0x20 DUP3 ADD SWAP1 POP DUP2 DUP2 SUB PUSH0 DUP4 ADD MSTORE PUSH2 0x92A DUP2 PUSH2 0x8F1 JUMP JUMPDEST SWAP1 POP SWAP2 SWAP1 POP JUMP INVALID LOG2 PUSH5 0x6970667358 0x22 SLT KECCAK256 RETURN 0xC4 0xB9 0xA6 MOD 0x26 PC ADDRESS 0xA8 0x5C RETURNDATACOPY PUSH7 0xF876648E4C5923 0x21 0xB2 STOP 0xFB GASPRICE REVERT PC CREATE2 0xB6 SWAP12 0xE9 PUSH14 0xAE64736F6C634300081500330000 "
		},
		"gasEstimates": {
			"creation": {
				"codeDepositCost": "481400",
				"executionCost": "24781",
				"totalCost": "506181"
			},
			"external": {
				"allowances(address)": "infinite",
				"balances()": "2447",
				"deposit()": "infinite",
				"owner()": "2549",
				"setAllowance(address,uint256)": "infinite",
				"withdraw(address,uint256)": "infinite"
			}
		},
		"methodIdentifiers": {
			"allowances(address)": "2b603c71",
			"balances()": "7bb98a68",
			"deposit()": "d0e30db0",
			"owner()": "8da5cb5b",
			"setAllowance(address,uint256)": "310ec4a7",
			"withdraw(address,uint256)": "f3fef3a3"
		}
	},
	"abi": [
		{
			"inputs": [],
			"stateMutability": "nonpayable",
			"type": "constructor"
		},
		{
			"inputs": [
				{
					"internalType": "uint256",
					"name": "available",
					"type": "uint256"
				},
				{
					"internalType": "uint256",
					"name": "required",
					"type": "uint256"
				}
			],
			"name": "InsufficientBalance",
			"type": "error"
		},
		{
			"inputs": [
				{
					"internalType": "address",
					"name": "",
					"type": "address"
				}
			],
			"name": "allowances",
			"outputs": [
				{
					"internalType": "uint256",
					"name": "amount",
					"type": "uint256"
				},
				{
					"internalType": "uint256",
					"name": "updated",
					"type": "uint256"
				}
			],
			"stateMutability": "view",
			"type": "function"
		},
		{
			"inputs": [],
			"name": "balances",
			"outputs": [
				{
					"internalType": "uint256",
					"name": "",
					"type": "uint256"
				}
			],
			"stateMutability": "view",
			"type": "function"
		},
		{
			"inputs": [],
			"name": "deposit",
			"outputs": [],
			"stateMutability": "payable",
			"type": "function"
		},
		{
			"inputs": [],
			"name": "owner",
			"outputs": [
				{
					"internalType": "address",
					"name": "",
					"type": "address"
				}
			],
			"stateMutability": "view",
			"type": "function"
		},
		{
			"inputs": [
				{
					"internalType": "address",
					"name": "_to",
					"type": "address"
				},
				{
					"internalType": "uint256",
					"name": "_amount",
					"type": "uint256"
				}
			],
			"name": "setAllowance",
			"outputs": [],
			"stateMutability": "nonpayable",
			"type": "function"
		},
		{
			"inputs": [
				{
					"internalType": "address payable",
					"name": "_to",
					"type": "address"
				},
				{
					"internalType": "uint256",
					"name": "_amount",
					"type": "uint256"
				}
			],
			"name": "withdraw",
			"outputs": [],
			"stateMutability": "nonpayable",
			"type": "function"
		},
		{
			"stateMutability": "payable",
			"type": "receive"
		}
	]
}